S0140000656D7074794350726F6A6563742E73333797
S113000000000220B1030000DD030000DD03000056
S1130010DD030000DD030000DD030000DD0300005C
S1130020DD030000DD030000DD030000DD0300004C
S1130030DD030000DC030000DD030000DD0300003D
S1130040DD030000CD2E00007D2F0000DD03000045
S1130050DD030000DD030000DD030000DD0300001C
S1130060DD030000DD030000DD0300009D2E000021
S1130070B12F0000DD030000DD030000DD030000FC
S1130080DD030000DD030000DD030000DD030000EC
S1130090D12F0000DD030000DD030000DD030000BC
S11300A0DD030000DD030000DD030000DD030000CC
S11300B0DD030000DD030000FD2E0000DD03000071
S11300C0DD030000DD030000DD030000DD030000AC
S11300D0DD030000DD030000DD03000010B5054C66
S11300E0237833B9044B13B10448AFF300800123E0
S11300F0237010BDE80100200000000078520000C9
S113010008B5034B1BB103490348AFF3008008BD96
S113011000000000EC01002078520000154B002B79
S113012008BF134B9D46A3F5803A00218B460F462A
S11301301348144A121A04F004F90F4B002B00D090
S113014098470E4B002B00D0984700200021040054
S11301500D000D48002802D00C48AFF3008004F0D5
S1130160C1F82000290003F027FB04F0A7F800BF22
S11301700000080000000220000000000000000051
S1130180E8010020680300200000000000000000D7
S113019080B483B000AF03463960FB71FB79002B58
S11301A00DD0FB79012B0AD0FB79022B07D0FB7908
S11301B0032B04D0FB79042B01D0FB79052B0122FE
S11301C03B6802FA03F30749FA7918461346DB0041
S11301D013449B000B441433186000BF0C37BD4616
S11301E080BC70470060004080B483B000AF034619
S11301F03960FB71FB79002B0DD0FB79012B0AD000
S1130200FB79022B07D0FB79032B04D0FB79042B59
S113021001D0FB79052B01223B6802FA03F307495D
S1130220FA7918461346DB0013449B000B44103341
S1130230186000BF0C37BD4680BC704700600040AA
S113024080B483B000AF03463960FB71FB79002BA7
S11302500DD0FB79012B0AD0FB79022B07D0FB7957
S1130260032B04D0FB79042B01D0FB79052B01224D
S11302703B6802FA03F30749FA7918461346DB0090
S113028013449B000B441833186000BF0C37BD4661
S113029080BC70470060004080B582B000AF01218F
S11302A0104801F02BF801210F4801F027F8002332
S11302B07B600FE00D4A7B6812F833000B4A7B68C1
S11302C0DB00134459680023042201F0FFFC7B681F
S11302D001337B607B68012BECDD00231846083773
S11302E0BD4680BD4081040000D204003C4D0000A6
S11302F080B582B000AF78607B68002B10DB7B6830
S1130300012B0DDC094A7B6812F83300074A7B682D
S1130310DB0013445B681946FFF73AFF002301E052
S11303204FF0FF3318460837BD4680BD3C4D0000F2
S113033080B582B000AF78607B68002B10DB7B68EF
S1130340012B0DDC094A7B6812F83300074A7B68ED
S1130350DB0013445B681946FFF746FF002301E006
S11303604FF0FF3318460837BD4680BD3C4D0000B2
S113037080B582B000AF78607B68002B10DB7B68AF
S1130380012B0DDC094A7B6812F83300074A7B68AD
S1130390DB0013445B681946FFF752FF002301E0BA
S11303A04FF0FF3318460837BD4680BD3C4D000072
S11303B0064880470649074A074B9A42BEBF51F890
S11303C0040B42F8040BF8E7FFF7A8FE55050000FC
S11303D08452000000000020E8010020FEE700BF76
S11303E080B400AF034BDB6C1B0EDBB21846BD467A
S11303F080BC7047B081E00F80B582B000AF00F0E0
S11304001FF87860074B5B6803F00F037A6822FAE1
S113041003F37B60044A7B6813607B6818460837E3
S1130420BD4680BD00800C400800002080B400AFB1
S1130430024B1846BD4680BC704700BF006CDC020E
S113044080B582B000AF334BDB6A03F47053B3F56D
S1130450805F0AD0B3F5005F03D0B3F5006F08D016
S11304600BE02D4B1B687B6047E04FF400437B603F
S113047043E02A4B1B687B603FE0264BDB6803F4B8
S1130480E063B3F5007F1BD0B3F5007F05D8002BE4
S113049024D0B3F5807F16D02BE0B3F5806F09D05C
S11304A0B3F5A06F03D0B3F5407F06D021E01C4B19
S11304B07B6021E01B4B7B601EE01B4B7B601BE0E1
S11304C01A4B7B6018E0FFF78BFF0346122B02D90F
S11304D0174B7B6010E0174B7B600DE0FFF780FF4C
S11304E00346122B02D9144B7B6005E0134B7B604F
S11304F002E000237B6000BF00BF064B1B689B0B20
S113050003F0070301337A68B2FBF3F318460837A4
S1130510BD4680BD00800C40040000200000002087
S1130520003FAB01406F4001809FD500C0D8A700B9
S113053040B56400C0CF6A00804F120040420F00F3
S113054080B400AF024B1B681846BD4680BC7047A0
S11305500000002080B400AF034B044A9A6000BF3F
S1130560BD4680BC704700BF00ED00E00000000005
S113057080B400AF4FF400431846BD4680BC7047BA
S113058080B400AF4FF47A731846BD4680BC704700
S113059080B400AF024B1B681846BD4680BC704750
S11305A00400002080B483B000AF0346FB71FB79E4
S11305B0002B03D0054B01221A6602E0034B0022F4
S11305C01A6600BF0C37BD4680BC704700A00840C7
S11305D080B483B000AF786000BF054B5A6E7B686F
S11305E01340002BF9D100BF0C37BD4680BC7047C7
S11305F000A0084080B483B000AF7860054B9A6ACD
S11306007B68DB43034913408B6200BF0C37BD4654
S113061080BC704700A0084080B500AF0022284984
S1130620002001F073FD00222549012001F06EFD38
S113063000222349022001F069FD00222049032001
S113064001F064FD00221E49042001F05FFD002238
S11306501B49052001F05AFD00221949062001F02A
S113066055FD00221649072001F050FD0022FF210C
S1130670002001F009FE0022FF21012001F004FE08
S11306800022FF21022001F0FFFD0022FF210320B0
S113069001F0FAFD0022FF21042001F0F5FD002203
S11306A0FF21052001F0F0FD0022FF21062001F0CA
S11306B0EBFD0022FF21072001F0E6FD00BF80BD15
S11306C000F00FF080B500AF00222649072001F0AA
S11306D01DFD00222449062001F018FD00222249B4
S11306E0052001F013FD00221F49042001F00EFD36
S11306F000221D49032001F009FD00221A490220AD
S113070001F004FD00221849012001F0FFFC002241
S11307104FF02041002001F0F9FC002207210720BE
S113072001F0B2FD00220721062001F0ADFD0022F8
S11307300721052001F0A8FD00220721042001F073
S1130740A3FD00220721032001F09EFD00220721C2
S1130750022001F099FD00220721012001F094FDFF
S113076000BF80BD00E00F5000E00FF080B582B004
S113077000AF0346FB710121244800F0BFFD0321B3
S1130780234800F0BDFF4021224800F0A1FC0120D5
S113079001F008F90121204800F0B0FD4FF0FF30CE
S11307A0FFF728FF1D4801F04FFB0121082001F04D
S11307B0A9FB0121102001F0A5FB0121802001F0FB
S11307C0A1FB01214FF4807001F09CFB01214FF447
S11307D0007001F097FBFB79002B0DD04FF4402003
S11307E001F010FE4FF4803001F06AFB0C4BDB6F1C
S11307F00B4A43F00803D367FFF70EFF4FF0FF30B7
S1130800FFF7E6FE00BF0837BD4680BD0043020087
S113081002001E0080002A0000362C002850000030
S113082000800C4080B58AB000AF78607B6842F2EB
S11308300E72934202DD42F20F737B607B6813F504
S11308407A7F01DC3D4B7B607B68002B06DA78689D
S113085003F02CFD78600123BB6101E00023BB6140
S11308604FF0FF30FFF7B4FE0120FFF79BFE00F0CE
S11308706DF80123FB6100233B6254E07A68FB6955
S113088092FBF3F22E4B83FB02139910D317C91A70
S11308900B469B000B445B00D11A0B46FB82BB69E1
S11308A0012B04D13B6A032B01D11023FB82FB8A69
S11308B0244A32F81330BB8200237B6227E02249AA
S11308C03A6A1346DB009B1A5B00CA187B6A13441E
S11308D0CB331B783B611C493A6A1346DB009B1AF5
S11308E05B00CA187B6A1344C4331B78FB60BA8A62
S11308F07B6A42FA03F303F00103002B04D00122C4
S11309003969F86801F01EFB7B6A01337B627B6AFC
S1130910062BD4DDFA6913469B0013445B00FB618C
S11309203B6A01333B623B6A032BA7DD0020FFF7E0
S113093039FE00BF2837BD4680BD00BF19FCFFFF4C
S113094067666666045000004C4D000080B500AF39
S113095000227821012001F097FC00227821022056
S113096001F092FC00227821032001F08DFC00228A
S11309707821042001F088FC00227821052001F070
S113098083FC00227821062001F07EFC00227821DD
S1130990072001F079FC00BF80BD000080B584B061
S11309A000AF03463960FB710023FB600023BB608A
S11309B0FB790E2B6BD801A252F823F0F909000041
S11309C0030A00000D0A0000170A0000210A0000B3
S11309D02B0A0000350A00003F0A0000490A000003
S11309E0530A00005D0A0000670A0000710A000053
S11309F07B0A0000850A00000123FB600C23BB6016
S1130A0046E00023FB602023BB6041E00323FB603E
S1130A102723BB603CE00223FB600C23BB6037E070
S1130A200023FB601C23BB6032E00323FB600C2328
S1130A30BB602DE00423FB600C23BB6028E0002393
S1130A40FB601E23BB6023E00523FB602723BB6000
S1130A501EE00023FB602223BB6019E00023FB603F
S1130A602323BB6014E00723FB600C23BB600FE06F
S1130A700523FB600C23BB600AE00623FB600C2308
S1130A80BB6005E00723FB601D23BB6000E000BFE3
S1130A903B68002B05D00122B968F86801F052FACE
S1130AA004E00022B968F86801F04CFA00BF10377E
S1130AB0BD4680BD80B58AB000AF7860786803F029
S1130AC080FC0346BB6100233B624FF0FF30FFF71D
S1130AD07FFD0120FFF766FDFFF7F4FD00233B6275
S1130AE045E03A6ABB699A4203DA7B681B787B6209
S1130AF001E020237B627B6A203B7B62214A7B6A84
S1130B0032F81330FB820023FB6127E01E493A6A66
S1130B101346DB009B1A9B00CA18FB6913440E336F
S1130B201B783B6118493A6A1346DB009B1A9B0009
S1130B30CA18FB6913441B78FB60FA8AFB6942FA02
S1130B4003F303F00103002B05D0FB68396901228C
S1130B50184601F0F7F9FB690133FB61FB690D2BC2
S1130B60D4DD7B6801337B603B6A01333B623B6AC3
S1130B70062BB6DD0020FFF715FD00BF2837BD4664
S1130B8080BD00BF4C4F00004C4D000080B487B0C6
S1130B9000AFF860B9607A60FB6803F10473DA00AF
S1130BA0BB6813449B007B617B697A681A6000BF51
S1130BB01C37BD4680BC704780B485B000AF7860F8
S1130BC039607B6803F10473DA003B6813449B00CB
S1130BD0FB60FB681B6818461437BD4680BC704731
S1130BE080B485B000AF78607B68002B03D07B684D
S1130BF0B3F5004F00BF7B68B3FA83F3DBB2C3F1F4
S1130C001F03FB60FB6818461437BD4680BC704761
S1130C1080B400AF034BDB6C1B0EDBB21846BD4641
S1130C2080BC7047B081E00F80B400AF034BDB6C35
S1130C301B0CDBB21846BD4680BC7047B081E00F88
S1130C4080B582B000AFFFF7EFFF03464A2B04D014
S1130C50792B02D0482B23D024E0154B1B699BB27F
S1130C601B029BB203F47C53FB80114B9B691B0951
S1130C701B0103F0F0039AB2FB881343FB800C4B77
S1130C80DB691B0903F00F039AB2FB881343FB8053
S1130C90FB88B3F5017F01D3064B04E0064B02E069
S1130CA0054B00E0002318460837BD4680BD00BF51
S1130CB0D0FF0FE000366E010048E80180B584B033
S1130CC000AF78600123FB60FFF7BAFF02467B6840
S1130CD0934204D80023FB600023BB600BE0FFF7C2
S1130CE0AFFF03465B007A689A4202D80123BB60D7
S1130CF001E00223BB60FA681E210848FFF746FFA3
S1130D00064B5B6823F48072BB681B0203491343E0
S1130D104B6000BF1037BD4680BD00BF00800C4053
S1130D2080B582B000AF1E210448FFF745FF78600C
S1130D307B6818460837BD4680BD00BF00800C4064
S1130D4080B582B000AF214B5B6903F4E063B3F577
S1130D50007F1CD0B3F5007F05D8002B25D0B3F558
S1130D60807F1FD02AE0B3F5C06F24D0B3F5E06FC5
S1130D701ED0B3F5407F21D1FFF74AFF0346122B63
S1130D8002D9134B7B601CE0124B7B6019E0FFF728
S1130D903FFF0346122B02D90F4B7B6011E00F4B30
S1130DA07B600EE00E4B7B600BE00E4B7B6008E03B
S1130DB00D4B7B6005E00D4B7B6002E000237B6004
S1130DC000BF7B6818460837BD4680BD00800C40D4
S1130DD0804F120040420F0040B56400C0CF6A004B
S1130DE0C0D8A700809FD500406F4001003FAB01F1
S1130DF080B582B000AF0D4800F0D4FB0346FB7011
S1130E00FB78072B05D0092B07D1FFF719FB786076
S1130E1006E0FFF795FF786002E000237B6000BFE7
S1130E207B6818460837BD4680BD00BF06000E002B
S1130E3080B485B000AF78603960204B5B6803F004
S1130E400703FB60FB68012B01D9042B02D10023AB
S1130E50FB7202E00123FB7200BF7B68184A9342D5
S1130E6007D9FB7A002B01D0052300E00423FB60A3
S1130E7016E07B68124A93420BD87B68114A93426E
S1130E8007D9FB7A002B01D0032300E00123FB6088
S1130E9006E0FB7A002B01D0022300E00023FB6074
S1130EA0064B5B6823F007020449FB6813434B605D
S1130EB000BF1437BD4680BC704700BF00000C4023
S1130EC00048E8010024F40080B582B000AF0E4B66
S1130ED0DB6B002B14BF01230023FB710A4B41F68B
S1130EE07132DA63FFF7A2FA034600211846FFF7CE
S1130EF09FFFFB79002B02D0034B0022DA6300BF73
S1130F000837BD4680BD00BF00000C4080B584B0EA
S1130F1000AF786039600C4BDB6B002B14BF0123EE
S1130F200023FB73084B41F67132DA633968786841
S1130F30FFF77EFFFB7B002B02D0034B0022DA631A
S1130F4000BF1037BD4680BD00000C4090B585B091
S1130F5000AF78600023BB607B68344A934203D0BF
S1130F60334A934200D000E000BF786800F01AFBD7
S1130F700346FB607B682D4A934203D02C4A93427C
S1130F8006D00CE02B4B9B6A03F00303FB6006E0E6
S1130F90284B9B6A9B0803F00303FB6000BFFB68BC
S1130FA0032B39D801A252F823F000BFE30F00004D
S1130FB0BD0F0000C50F0000CD0F0000FFF7D8FAE9
S1130FC0B8602DE0FFF7E4FAB86029E0FFF714FAFF
S1130FD00446FFF7A5FE0346013324FA03F3BB607E
S1130FE01EE00023BB607B68104A934203D07B68F9
S1130FF00F4A934213D10F4B9A6A7B680B498B4279
S113100001D1102300E0142322FA03F3002B06D0AD
S1131010FFF7B6FAB86002E00023BB6000E000BF4F
S1131020BB6818461437BD4690BD00BF02001E00C1
S11310300300200000800C4080B483B000AF7860CF
S1131040094B5B6D03F00103002B07D100BF064B76
S11310501A6D7B681340002BF9D100E000BF0C37F8
S1131060BD4680BC704700BF00800C4080B582B094
S113107000AF104800F096FA0346FB70FB78032B90
S113108007D0092B09D0022B0BD1FFF781FA786026
S11310900AE0FFF76DFA786006E0FFF7D1F97860AF
S11310A002E000237B6000BF7B6818460837BD461A
S11310B080BD00BF0723260080B400AF00BFBD463B
S11310C080BC704780B400AF00BFBD4680BC704791
S11310D090B585B000AF786039607B681B0903F078
S11310E00F03FB60FB68013B082B00F2F48001A2B4
S11310F052F823F019110000D7120000D712000093
S11311004D110000D7120000D71200007511000025
S1131110C1110000831200003B68002B02D03B6821
S1131120082B00BFFFF7D0FE6D4B1B6823F4E032A1
S11311303B68013B9B036A4913430B60FFF75CF96F
S1131140B8600021B868FFF7E1FEC5E03B68002BFA
S113115003D03B68B3F5007F00BF3868FFF740FD5C
S113116038605F4B9B6823F00F025D493B68134373
S11311708B60B1E03B68002B03D03B68B3F5007F84
S113118000BFFFF7A1FEFFF75BF902463B68B2FB25
S1131190F3F31846FFF792FD3868FFF721FD386036
S11311A04F4B5B6823F00F024D493B6813434B6080
S11311B0FFF722F9B8600021B868FFF7A7FE8BE0BB
S11311C07B68484A93421ED0464A934203D8464A13
S11311D0934207D054E0454A934225D0444A93426F
S11311E03ED04DE00420FFF727FF3868FFF7F8FCF6
S11311F038603B4B9B6E23F0F0023B681B0138497F
S113120013438B663CE00420FFF716FF3868FFF7B2
S1131210E7FC3860324B9B6E23F470623B681B0220
S11312202F4913438B662BE03B680F2B02D93B6895
S1131230802B00BF0420FFF7FFFE3868FFF7D0FCC7
S11312403860274B9B6E23F440541020FFF7C8FCF2
S113125002463B689B1A1B03214A234393660FE013
S11312600420FFF7E9FE3868FFF7BAFC38601C4B2E
S11312709B6E23F003021A493B6813438B6600BF3D
S11312802AE07B681B4A934203D01B4A934210D046
S113129020E04020FFF7D0FE3868FFF7A1FC38605B
S11312A00F4B1B6F23F003020D493B6813430B677D
S11312B010E04020FFF7C0FE3868FFF791FC38606B
S11312C0074B1B6F23F030023B681B010449134397
S11312D00B6700BF00E000BF00BF1437BD4690BDE0
S11312E000800C40802616008016120080002A0020
S11312F080062E0090071A0090171C0080B586B057
S113130000AF78600B46FB7000233B617B681B0ACF
S113131003F00F03013B092B45D801A252F823F037
S11313205D1300006313000049130000A7130000BD
S1131330A71300006913000073130000A713000033
S1131340A71300007D130000194B7B61194800F0BE
S11313503DF803461846FFF7B1FC12E0164B7B61DB
S11313600FE0164B7B610CE0154B7B6101233B6165
S113137007E0144B7B6110233B6102E0124B7B615D
S113138000BF7B681B0B03F01F03FB603B69002B52
S113139002D03869FFF750FEFB781A46F96878697D
S11313A0FFF7F4FB00E000BF1837BD4680BD00BF67
S11313B040800C400043020008800C4044800C40F4
S11313C058800C4060800C4078800C4090B585B00B
S11313D000AF78607B6803F47813B3F5D01F00F096
S11313E0AB80B3F5D01F1AD8B3F5602F00F0BF80DF
S11313F0B3F5602F08D8B3F5003F3CD0B3F5802F88
S11314002DD0002B27D0BEE0B3F5901F3CD0B3F510
S1131410B01F47D0B3F5801F00F0AD80B3E0B3F543
S1131420181F00F0AC80B3F5181F0AD8B3F5F01FED
S113143025D0B3F5001F7AD0B3F5E01F00F0898002
S1131440A1E0B3F5301F4ED0B3F5381F62D0B3F529
S1131450281F35D097E0FEF7F3FFF86096E0FEF71B
S1131460EFFFF8604C4B9B6803F00F03FA6822FA15
S113147003F3FB608AE0FEF7BFFFF86086E04748AD
S1131480FFF764FDF86081E04448FFF75FFDF86012
S1131490414B9B6E1B0903F00F03FA6822FA03F316
S11314A0FB6073E03D48FFF751FDF8603A4B9B6EDB
S11314B01B0A03F00F03FA6822FA03F3FB6065E0EA
S11314C03648FFF743FDF860334B9B6E1B0B03F06C
S11314D003041020FFF784FB03462344FA6822FA2E
S11314E003F3FB6052E02D48FFF730FDF8602A4B10
S11314F09B6E1B0B03F00303FA6822FA03F3FB60F1
S1131500254BDB6F03F007030133FA68B2FBF3F3F7
S1131510FB603BE02148FFF719FDF8601E4B9B6E12
S113152003F00303FA6822FA03F3FB602EE01C487D
S1131530FFF70CFDF86029E01948FFF707FDF86094
S1131540154B1B6F03F00303FA6822FA03F3FB60E5
S11315501CE01348FFF7FAFCF8600F4B1B6F1B09E4
S113156003F00303FA6822FA03F3FB600EE0FFF7CB
S11315703FFCF8600AE0FFF7E3FBF86006E0FFF7E2
S113158075FDF86002E00023FB6000BFFB681846AD
S11315901437BD4690BD00BF00800C4002001E0001
S11315A00300200080B485B000AF78600123FB7392
S11315B07B6803F00F03BB60BB68013B062B00F2A2
S11315C0938001A252F823F0E51500001B160000D9
S11315D057160000E9160000E916000093160000F3
S11315E0B5160000454BDB6A03F47053B3F5805F16
S11315F009D0B3F5005F03D0B3F5006F06D008E05F
S11316000223FB7308E00323FB7305E00423FB734D
S113161002E00523FB7300BF69E0384B9B6A03F0CB
S11316200303022B06D0032B07D0012B08D103237D
S1131630FB730FE00223FB730CE00623FB7309E04A
S11316402E4B9B6A03F48033002B02D00A23FB73D6
S113165000E000BF4BE0294B9B6A03F00C03082B0E
S113166006D00C2B07D0042B08D10323FB730FE007
S11316700223FB730CE00623FB7309E01F4B9B6AF8
S113168003F48013002B02D00A23FB7300E000BF95
S11316902DE01A4B1B6803F08053002B03D0B3F1E9
S11316A0805F03D023E00723FB7302E00923FB736D
S11316B000BF1CE0114BDB6A03F46033B3F5803FD9
S11316C008D0B3F5003F08D0B3F5004F08D1092383
S11316D0FB7308E00223FB7305E00323FB7302E0C2
S11316E00123FB7300BF02E00023FB7300BFFB7BFD
S11316F018461437BD4680BC704700BF00800C40BC
S113170080B588B000AF78600B46FB700323FB61A3
S11317100323FB7600233B617B6803F00F03FB602C
S1131720FB68013B062B00F22C8101A252F823F046
S11317304D1700002B1800002B180000831900001F
S113174083190000F11800001B190000FB78023B0C
S1131750082B00F2188101A252F823F0811700002F
S11317608B17000095170000D71700008719000099
S113177087190000871900008719000087190000E5
S11317800423FB610023FB7631E00323FB61012387
S1131790FB762CE00223FB610223FB76FFF750FA71
S11317A0034601331846FFF789FAFEF7C9FE0246DD
S11317B0784B9A4206D9784B1B68774A43F060030A
S11317C0136014E0744B1B6823F06003724A43F007
S11317D0200313600BE00123FB610323FB76FFF777
S11317E02FFA034601331846FFF768FA00BFFB7E61
S11317F001220121184600F0F3F8FFF765FBFFF71B
S11318005BFC654AFB6953626448FFF7DFFD0346EE
S11318101846FFF753FAFEF7EFFDB8600021B868E9
S1131820FFF774FBFFF74EFCB0E0FB78013B092B9C
S113183000F2AB8001A252F823F000BF651800004B
S11318406B1800007B1800008B1900008B19000036
S11318508B1800008B1900008B1900008B190000F5
S1131860A718000000237B6122E00122012100204F
S113187000F0B6F802237B611AE001220121012065
S113188000F0AEF801237B6112E0FEF7B5FDB8600D
S1131890B868FFF713FA012204214148FFF776F9EB
S11318A003237B6104E000237B6101233B6100BFD0
S11318B0FB68022B0DD1384B9B6A23F4803323F051
S11318C003037A691A433B691B04334913438B624C
S11318D05CE0314B9B6A23F4801323F00C037A6998
S11318E092001A433B691B052B4913438B624DE05D
S11318F0FB78072B02D0092B07D047E0264B1B6847
S1131900254A23F08053136006E0234B1B68224AC8
S113191043F08053136000BF38E0FB78032B14D0EE
S1131920092B22D0022B00D030E00122012100201B
S113193000F056F8184B40225A6200BF164BDB6A7F
S113194003F48033002BF9D01AE001220121012095
S113195000F046F8104B60225A6200BF0E4BDB6A5F
S113196003F40033002BF9D00AE00B4B20225A6217
S113197000BF094BDB6A03F40043002BF9D000BF1E
S113198004E000BF02E000BF00E000BF2037BD4616
S113199080BD00BF0048E80100800C400043020005
S11319A040800C4080B483B000AF78600B4B9B6DDB
S11319B003F00803002B0CD17B6803F007037B6062
S11319C0064BDB6F23F0070204497B681343CB67A4
S11319D000E000BF0C37BD4680BC704700800C405F
S11319E080B586B000AF0346FB710B46BB7113464E
S11319F07B71FB79042B48D801A252F823F000BF75
S1131A004D1A00003F1A0000231A0000151A0000A6
S1131A10311A000001233B610223FB6001237B6137
S1131A201DE004233B610823FB6003237B6116E074
S1131A3010233B612023FB6005237B610FE04023DF
S1131A403B618023FB6007237B6108E04FF48073D4
S1131A503B614FF40073FB6009237B6100BFBB79DA
S1131A60002B0ED00B4A3B6913627B79002B0DD0FF
S1131A7000BF79690848FFF79FF80346002BF8D0A8
S1131A8004E0044AFB68136200E000BF1837BD4657
S1131A9080BD00BF00800C402C800C4080B483B01B
S1131AA000AFEFF310833B603B687B6072B67B68EA
S1131AB018460C37BD4680BC704780B483B000AF75
S1131AC078607B68002B00D162B600BF0C37BD463E
S1131AD080BC704780B487B000AFF860B9607A60AA
S1131AE0FB6803F10473DA00BB6813449B007B6159
S1131AF07B697A681A6000BF1C37BD4680BC70479A
S1131B0080B485B000AFF860B9607A60FB681A6889
S1131B10BB68DB431A407B681A43FB681A6000BF4A
S1131B201437BD4680BC704780B483B000AF786082
S1131B30044A7B68C2F81C3100BF0C37BD4680BC28
S1131B40704700BF0060004080B483B000AF03461C
S1131B503960FB71FB79002B0DD0FB79012B0AD086
S1131B60FB79022B07D0FB79032B04D0FB79042BE0
S1131B7001D0FB79052B01223B6802FA03F30749E4
S1131B80FA7918461346DB0013449B000B441433C4
S1131B90186000BF0C37BD4680BC70470060004031
S1131BA080B483B000AF03463960FB71FB79002B2E
S1131BB00DD0FB79012B0AD0FB79022B07D0FB79DE
S1131BC0032B04D0FB79042B01D0FB79052B0122D4
S1131BD03B6802FA03F30749FA7918461346DB0017
S1131BE013449B000B441033186000BF0C37BD46F0
S1131BF080BC70470060004080B586B000AFB9601B
S1131C007A601A460346FB731346BB7300237B6159
S1131C10FB7B002B0DD0FB7B012B0AD0FB7B022B23
S1131C2007D0FB7B032B04D0FB7B042B01D0FB7B75
S1131C30052B7B68072B0ED87B689B00072202FAD2
S1131C4003F1FA7B7B689B0002FA03F31A461A48F5
S1131C50FFF756FF10E07B68083B7B617B699B00C4
S1131C60072202FA03F1FA7B7B699B0002FA03F371
S1131C701A461248FFF744FFBB7B1A46796810489E
S1131C80FFF728FF97F820301A4679680D48FFF7C8
S1131C9021FF01227B6802FA03F31846FFF744FF91
S1131CA097F824301A4679680748FFF713FF00BFF6
S1131CB01837BD4680BD00BF00610040046100408C
S1131CC0086100400C6100401061004080B584B0A0
S1131CD000AFB9607B600346FB731346BB73FB7BA9
S1131CE0002B0DD0FB7B012B0AD0FB7B022B07D0F2
S1131CF0FB7B032B04D0FB7B042B01D0FB7B052B4C
S1131D00BB7B002B0DD07B68002B05D0FB7BB96817
S1131D101846FFF745FF04E0FB7BB9681846FFF758
S1131D2013FFBB68072B20D82D49FA7B1346DB0031
S1131D3013449B000B4404331A68BB689B000F21B7
S1131D4001FA03F3DB431340B97BBA68920001FA4A
S1131D5002F211462248FA7B19431346DB0013446E
S1131D609B0003440433196025E01D49FA7B1346A4
S1131D70DB0013449B000B4408331A68BB6803F16F
S1131D808043083B9B000F2101FA03F3DB4302EA83
S1131D900301BA7BBB6803F18043083B9B0002FA52
S1131DA003F30F48FA7B19431346DB0013449B00EB
S1131DB0034408331960BB7B002B0DD17B68002BD7
S1131DC005D0FB7BB9681846FFF7EAFE04E0FB7B0D
S1131DD0B9681846FFF7B8FE00BF1037BD4680BD8E
S1131DE00060004080B483B000AF0346FB71FB7910
S1131DF0002B06D0084B1B68074A43F0010313600D
S1131E0005E0054B1B68044A23F00103136000BF7F
S1131E100C37BD4680BC704700A0084080B487B032
S1131E2000AFF860B9607A60FB6803F10473DA000C
S1131E30BB6813449B007B617B697A681A6000BFAE
S1131E401C37BD4680BC704780B584B000AF786055
S1131E501A4B5B68FB600020FFF7C4FFFB6823F4A8
S1131E60830323F01F03FB607B685B68FA681343FA
S1131E70FB607B681B7A1A46FB681343FB607B6834
S1131E805B7A1A46FB681343FB607B68DB68FA687D
S1131E901343FB607B681B8A1A46FB681343FB6091
S1131EA0064AFB6853607B681B78002B02D0012034
S1131EB0FFF798FF00BF1037BD4680BD00A0084063
S1131EC080B485B000AF78600D4B5B68FB60FB6845
S1131ED023F48033FB607B68002B08D0B3F5803F8C
S1131EE000D005E0FB6843F48033FB6000E000BFF2
S1131EF0034AFB68536000BF1437BD4680BC70477B
S1131F0000A0084080B483B000AF03460A46FB80BB
S1131F1013467B717B79002B06D0094B9A68FB88AA
S1131F20074913438B6006E0054B9A68FB88DB4343
S1131F30034913408B6000BF0C37BD4680BC70471B
S1131F4000A0084080B584B000AFF860B9601346C3
S1131F50FB71FB68072B00F2B38001A252F823F057
S1131F60811F0000A91F0000D11F0000F91F0000FD
S1131F702120000049200000712000009920000069
S1131F80BB681F2B06DCBB68FA7919464F48FFF77C
S1131F9045FF96E0BB68203BBB60BB68FA791946F5
S1131FA04B48FFF73BFF8CE0BB681F2B06DCBB688C
S1131FB0FA7919464748FFF731FF82E0BB68203BB6
S1131FC0BB60BB68FA7919464348FFF727FF78E0FE
S1131FD0BB681F2B06DCBB68FA7919463F48FFF73C
S1131FE01DFF6EE0BB68203BBB60BB68FA791946F5
S1131FF03B48FFF713FF64E0BB681F2B06DCBB689C
S1132000FA7919463748FFF709FF5AE0BB68203BC5
S1132010BB60BB68FA7919463348FFF7FFFE50E00E
S1132020BB681F2B06DCBB68FA7919462F48FFF7FB
S1132030F5FE46E0BB68203BBB60BB68FA791946F5
S11320402B48FFF7EBFE3CE0BB681F2B06DCBB68AC
S1132050FA7919462748FFF7E1FE32E0BB68203BD6
S1132060BB60BB68FA7919462348FFF7D7FE28E01E
S1132070BB681F2B06DCBB68FA7919461F48FFF7BB
S1132080CDFE1EE0BB68203BBB60BB68FA791946F5
S11320901B48FFF7C3FE14E0BB681F2B06DCBB68BC
S11320A0FA7919461748FFF7B9FE0AE0BB68203BE6
S11320B0BB60BB68FA7919461348FFF7AFFE00E02E
S11320C000BF00BF1037BD4680BD00BF40A0084020
S11320D050A0084044A0084054A0084048A008402C
S11320E058A008404CA008405CA00840CCA0084080
S11320F0B4A00840D0A00840B8A00840D4A008402C
S1132100BCA00840D8A00840C0A0084080B487B054
S113211000AFF860B9607A60FB68072B00F2AC800E
S113212001A252F823F000BF492100006D210000F4
S113213091210000B5210000D921000001220000F6
S113214029220000512200004E4B1B6C7B61BB68AE
S1132150DB437A6913407B61BA687B6813407A6910
S113216013437B61474A7B69136486E0454B5B6C90
S11321707B61BB68DB437A6913407B61BA687B6827
S113218013407A6913437B613E4A7B69536474E06C
S11321903C4B9B6C7B61BB68DB437A6913407B617E
S11321A0BA687B6813407A6913437B61354A7B695B
S11321B0936462E0334BDB6C7B61BB68DB437A691D
S11321C013407B61BA687B6813407A6913437B616F
S11321D02C4A7B69D36450E02A4BD3F8CC307B6122
S11321E0BB68DB437A6913407B61BA687B68134040
S11321F07A6913437B61234A7B69C2F8CC303CE0A3
S1132200204BD3F8D0307B61BB68DB437A69134041
S11322107B61BA687B6813407A6913437B61194A0E
S11322207B69C2F8D03028E0164BD3F8D4307B61F8
S1132230BB68DB437A6913407B61BA687B681340EF
S11322407A6913437B610F4A7B69C2F8D43014E086
S11322500C4BD3F8D8307B61BB68DB437A691340FD
S11322607B61BA687B6813407A6913437B61054AD2
S11322707B69C2F8D83000E000BF00BF1C37BD4600
S113228080BC704700A0084080B487B000AFF860FD
S1132290B9607A60FB68072B00F2AC8001A252F8A7
S11322A023F000BFC5220000E92200000D23000036
S11322B031230000552300007D230000A5230000E6
S11322C0CD2300004E4B1B6D7B61BB68DB437A69F9
S11322D013407B61BA687B6813407A6913437B615E
S11322E0474A7B69136586E0454B5B6D7B61BB6840
S11322F0DB437A6913407B61BA687B6813407A696F
S113230013437B613E4A7B69536574E03C4B9B6D90
S11323107B61BB68DB437A6913407B61BA687B6885
S113232013407A6913437B61354A7B69936562E0A4
S1132330334BDB6D7B61BB68DB437A6913407B61A4
S1132340BA687B6813407A6913437B612C4A7B69C2
S1132350D36550E02A4BD3F8B4307B61BB68DB43D0
S11323607A6913407B61BA687B6813407A691343C6
S11323707B61234A7B69C2F8B4303CE0204BD3F83C
S1132380B8307B61BB68DB437A6913407B61BA6810
S11323907B6813407A6913437B61194A7B69C2F8ED
S11323A0B83028E0164BD3F8BC307B61BB68DB4304
S11323B07A6913407B61BA687B6813407A69134376
S11323C07B610F4A7B69C2F8BC3014E00C4BD3F834
S11323D0C0307B61BB68DB437A6913407B61BA68B8
S11323E07B6813407A6913437B61054A7B69C2F8B1
S11323F0C03000E000BF00BF1C37BD4680BC704742
S113240000A0084080B483B000AF7860064B5B68DE
S113241023F4E01204497B6813434B6000BF0C377C
S1132420BD4680BC704700BF00A0084080B487B0A0
S113243000AFF860B9607A60FB6803F10473DA00F6
S1132440BB6813449B007B617B697A681A6000BF98
S11324501C37BD4680BC704780B485B000AF78603F
S113246039607B68002B02D0012B03D008E0064BB7
S1132470FB6002E0054BFB6000BFFB683A681A6032
S11324801437BD4680BC7047080008400C00084063
S113249080B582B000AF0346FB71FB791A46002178
S11324A00348FFF7C3FF00BF0837BD4680BD00BF28
S11324B00000084080B485B000AF78607B681B786A
S11324C0002B02D00123FB6001E00023FB607B684A
S11324D05B78002B03D0FB6843F00203FB607B684E
S11324E09B78002B03D0FB6843F00403FB60044A91
S11324F0FB68136000BF1437BD4680BC704700BF43
S11325000000084080B485B000AF78601A4B5B6966
S1132510DBB29B00DBB203F03C03FB73164B1B697D
S11325209B09DBB203F00303DAB2FB7B1343FB73B7
S11325307B68FA7B9A70104B1B69DBB203F03F0394
S1132540DAB27B685A700C4B9B691B09DBB21B0126
S1132550FB73094BDB691B09DBB203F00F03DAB22F
S1132560FB7B1343FB737B68FA7B1A7000BF143741
S1132570BD4680BC704700BFD0FF0FE080B483B07D
S113258000AF78607B680D4A93420BD07B680C4A9D
S1132590934207D07B680B4A934203D07B680A4A74
S11325A0934201D1012300E0002303F00103DBB2D5
S11325B018460C37BD4680BC704700BF0000014080
S11325C00004014000080140000C014080B584B0C3
S11325D000AF786039607868FFF7D0FF0023FB60B4
S11325E03B681B7883F00103DBB2002B02D07B68CD
S11325F002225A607B6800225A623B689B781A0662
S11326003B68DB781B041A433B689B799B021A43A3
S11326103B68DB791B0213433A68127A13433A6826
S11326205278002A01D0402200E0002213433A6885
S1132630527A002A01D0802200E0002213433A6833
S1132640927A002A01D0202200E0002213433A6843
S1132650D27A002A01D0102200E0002213433A6803
S1132660127B002A01D0082200E000221343FB6001
S11326703B681B79002B02D04FF4005200E000228B
S11326803B685B79002B02D04FF0805300E00023BD
S11326901343FA681343FB607B68FA681A603B686B
S11326A01B78002B02D07B6801225A6000BF1037D0
S11326B0BD4680BD80B483B000AF78600B46FB702C
S11326C0FB7843F01003DBB21A467B689A6500BFBF
S11326D00C37BD4680BC704780B586B000AFF8604B
S11326E0B9607A60FB70BB68002B03D12448FEF705
S11326F06DFEB860FB78202B0CD0202B02DC002B65
S113270005D03AE0402B08D0602B09D035E01023E7
S11327107B6108E008237B6105E006237B6102E01E
S113272004237B6100BFBB689A007B69796801FB65
S113273003F35B0813443B617B697A6802FB03F390
S11327403A69B2FBF3F33B613B69043B3B613B6990
S11327509B013B613A690B4B13403B61FB681B686F
S113276023F06002FB681A60FB681A68FB781A435E
S1132770FB681A60FB683A695A611837BD4680BD28
S113278040810400C0FF1F0080B582B000AF7860B4
S113279039607B68284A93420ED07B68274A93426B
S11327A00AD07B68264A934206D07B68254A934226
S11327B002D07B68244A934200BF786800F046F850
S11327C03B689B7C002B05D07B681B6843F08042F0
S11327D07B681A603B68DB7C002B05D03B681B7D63
S11327E019467868FFF766FF3B685B7B1A463B68CF
S11327F01B8A13433A68D2891A437B685A603B6840
S113280059683B689A683B681B7B7868FFF764FFEC
S11328103B685B7D002B05D07B681B6843F48032EA
S11328207B681A603B681B781A467B68DA6000BFD5
S11328300837BD4680BD00BF00C0004000C4004052
S113284000C8004000E0004000E4004080B483B0D1
S113285000AF78607B68244A93420ED07B68234A99
S113286093420AD07B68224A934206D07B68214A6D
S1132870934202D07B68204A934200BF7B6840F6B3
S1132880AA62DA607B6800221A607B6841F2050262
S11328905A607B6800229A607B6800225A617B68D8
S11328A00022DA647B6841F6F9729A647B6800223C
S11328B05A657B680C4A934202D17B6800221A65F0
S11328C07B6800229A657B68084A934203D07B6840
S11328D0074A934202D17B680022DA6500BF0C37B5
S11328E0BD4680BC704700BF00C0004000C400402B
S11328F000C8004000E0004000E4004080B483B021
S113290000AF78600B46FB7000BF7B681B6903F067
S11329104003002BF9D0FA787B685A6300BF0C3768
S1132920BD4680BC7047000080B483B000AF03464E
S1132930FB7197F90730002B0BDBFB7903F01F02C7
S1132940064997F907305B09012000FA02F241F8C1
S1132950232000BF0C37BD4680BC704700E100E077
S113296080B483B000AF0346FB7197F90730002BA6
S11329700CDBFB7903F01F02074997F907305B0969
S1132980012000FA02F2603341F8232000BF0C3723
S1132990BD4680BC704700BF00E100E080B485B054
S11329A000AF786039607B6803F10473DA003B6838
S11329B013449B00FB60FB681B6818461437BD4634
S11329C080BC704780B483B000AF7860044A7B68F1
S11329D0C2F81C3100BF0C37BD4680BC704700BF35
S11329E00060004080B483B000AF7860064BD3F839
S11329F010217B68DB4304491340C1F8103100BF48
S1132A000C37BD4680BC70470060004080B483B082
S1132A1000AF7860064BD3F8102105497B68134357
S1132A20C1F8103100BF0C37BD4680BC704700BFF1
S1132A300060004080B582B000AF03463960FB718E
S1132A40FB79002B0DD0FB79012B0AD0FB79022BEB
S1132A5007D0FB79032B04D0FB79042B01D0FB793D
S1132A60052BFA791346DB0013449B001C3303F156
S1132A70804303F5C04339681846FFF78FFF0346C8
S1132A8018460837BD4680BD80B584B002AF3960B2
S1132A9011461A460346FB710B46BB7113467B7104
S1132AA0BA79F8793B7C01937B79009313463A68B1
S1132AB03968FFF7A1F800BF0837BD4680BD0000A4
S1132AC080B483B000AF7860034A7B68936100BF31
S1132AD00C37BD4680BC70470000084080B483B00A
S1132AE000AF7860054BDA6904497B681343CB6116
S1132AF000BF0C37BD4680BC704700BF00000840D3
S1132B0080B483B000AF78604FF6FF7318460C377B
S1132B10BD4680BC704780B582B000AF7860396034
S1132B207868FFF7EDFF7B683A685A6200BF0837A0
S1132B30BD4680BD80B483B000AF786039607B68E7
S1132B403A689A6100BF0C37BD4680BC704780B4B8
S1132B5083B000AF786039607B68DA683B68DB4338
S1132B601A407B68DA6000BF0C37BD4680BC7047F2
S1132B7080B483B000AF786039607B68DA683B6802
S1132B801A437B68DA6000BF0C37BD4680BC7047CF
S1132B9080B582B000AF786039607868FFF7B0FF25
S1132BA07B683A68DA6100BF0837BD4680BD80B4EF
S1132BB083B000AF786039607B683A689A6400BF7C
S1132BC00C37BD4680BC704780B483B000AF7860DA
S1132BD039607B68DA6C3B681A437B68DA6400BF4F
S1132BE00C37BD4680BC704780B483B000AF7860BA
S1132BF07B68DB69DBB218460C37BD4680BC704786
S1132C0080B500AF05211120FEF77AFD022110489E
S1132C10FEF776FD01210F48FEF770FB20210E48D8
S1132C20FEF756FA01210C48FEF768FB01210B4818
S1132C30FEF764FB01210A48FEF760FB0121094805
S1132C40FEF75CFB01210848FEF758FB00BF80BD7E
S1132C5002001E00004302008016120000D204008D
S1132C6000520400006204000032040080B582B007
S1132C7000AF154A3B1D1268114619800233120C2D
S1132C801A7000233B7100237B710123BB713B1D30
S1132C901846FFF70FFC40F2FF310020FFF7DCFB82
S1132CA00220FFF70DFF0220FFF718FF1E20FFF799
S1132CB057FE1E20FFF738FE0120FFF7E9FB00BF97
S1132CC00837BD4680BD00BF4850000080B582B0C3
S1132CD002AF0023012209210120FEF7F7FF0023A0
S1132CE001220A210120FEF7F1FF002300930123B2
S1132CF0012209210120FFF7C7FE002300930123CD
S1132D0001220A210120FFF7BFFE4FF40070FFF7F4
S1132D1059FE4FF48060FFF755FE0120FFF720FEB7
S1132D200120FFF701FE0B20FFF71AFE0B20FFF72F
S1132D30FBFD00BFBD4680BD80B584B000AF3B46FF
S1132D4000221A605A609A601A7301233B700A23A6
S1132D50BB703B4619460D48FFF738FC43F26851F7
S1132D600A48FFF715FF01210848FFF7F0FE01218B
S1132D700648FFF7DFFE0220FFF7F2FD0220FFF70F
S1132D80D3FD00BF1037BD4680BD00BF0000014029
S1132D9080B584B000AF3B4600221A605A609A6046
S1132DA01A7301233B700A23BB703B4619460D4836
S1132DB0FFF70CFC43F268510A48FFF7E9FE0121D2
S1132DC00848FFF7C4FE01210648FFF7B3FE0C20B4
S1132DD0FFF7C6FD0C20FFF7A7FD00BF1037BD4667
S1132DE080BD00BF00040140B0B586B000AF284BE1
S1132DF03C461D460FCD0FC495E8030084E803004C
S1132E004FF4E133BB6005237B730023FB814FF454
S1132E1080533B8200233B733B4619461D48FFF712
S1132E20B3FC0123042200210420FEF74FFF0023FA
S1132E30012201210420FEF749FF174BD3F8C030CB
S1132E40154A43F08003C2F8C030124B5B6D23F483
S1132E50E063104A43F4807353650E4B5B6D0D4A77
S1132E6043F00303536504210A48FFF7A0FE04213D
S1132E700848FFF7A9FE1420FFF772FD1520FFF79D
S1132E806FFD1420FFF750FD00BF1837BD46B0BDDD
S1132E904C50000000E000400060004080B500AFEE
S1132EA04FF40070FFF78EFD09210120FFF7C2FDEA
S1132EB00346002B03D1044B01221A7002E0024B9B
S1132EC000221A7000BF80BD0A02002080B500AF46
S1132ED04FF48060FFF776FD0A210120FFF7AAFD79
S1132EE00346002B03D1044B01221A7002E0024B6B
S1132EF000221A7000BF80BD0B02002080B500AF15
S1132F000220FFF7DDFD194B01221A70184B1B78C4
S1132F10DBB20133DAB2164B1A70154B1B78DBB2F5
S1132F203B2B20D9124B00221A70124B1B78DBB2B8
S1132F300133DAB20F4B1A700E4B1B78DBB23B2B0A
S1132F4011D90C4B00221A700B4B1B78DBB20133E6
S1132F50DAB2094B1A70084B1B78DBB2172B02D973
S1132F60054B00221A7000BF80BD00BF090200207B
S1132F7006020020050200200402002080B500AFF4
S1132F8001210748FFF7D6FD064B01221A70064BB4
S1132F9000221A70054B01221A7000BF80BD00BFC9
S1132FA0000001400C0000200C0200200D02002053
S1132FB080B500AF01210448FFF7BCFD034B01229B
S1132FC01A7000BF80BD00BF000401403902002018
S1132FD0B0B500AF2348FFF707FE03461A46224B5D
S1132FE01A70214B1B78DBB219461E48FFF786FC8A
S1132FF01E4B01221A701E4B1B7C0F2B24D81C4B1A
S11330001B7C5A1CD1B21A4A11741A46164B1B78EF
S1133010D9B2174B9954144B1B78DBB20A2B1ED12F
S1133020144A134B14461D460FCD0FC42B6823704E
S1133030114B01221A700E4B00221A741022002127
S11330400B4801F07EF90AE0094B00221A741022A1
S11330500021074801F075F9084B01221A7000BFDE
S1133060B0BD00BF00E00040620300200E0200205B
S113307014020020280200200F0200201002002069
S113308080B582B000AF214B1B7C002B32D01F4B8C
S11330901B78522B1ED0572B0FD0432B00D030E07F
S11330A01B4800F0E1FB78601849786800F0A0FB49
S11330B00346002B20D1432324E0164800F0D4FB20
S11330C078601249786800F093FB0346002B15D111
S11330D0572317E010490D4801F069F90346002B06
S11330E006D00E49094801F062F90346002B07D1C6
S11330F0522307E000BF04E000BF02E000BF00E08D
S113310000BF582318460837BD4680BD280200205A
S11331106450000090500000B0500000B85000000F
S113312080B582B000AF20211F4801F033F97860E8
S11331307B6801337B60786801F0BCF80346FB7060
S11331403A21786801F026F978607B6801337B6066
S1133150786801F0AFF80346BB703A21786801F053
S113316019F978607B6801337B60786801F0A2F814
S113317003467B70FB78172B10D8BB783B2B0DD8FC
S11331807B783B2B0AD8094AFB781370084ABB7832
S11331901370084A7B781370012300E0002318465B
S11331A00837BD4680BD00BF28020020040200206D
S11331B0050200200602002080B582B000AF202165
S11331C0214801F0E7F878607B6801337B60786818
S11331D001F070F80346FB703A21786801F0DAF8E0
S11331E078607B6801337B60786801F063F803469C
S11331F0BB70FB78172B21D8BB783B2B1ED8134A06
S1133200FB781370124ABB781370104B1A78114B69
S11332101A700F4B1A78104B1A70104B01221A7047
S11332200A4B1B781A46642303FB02F3084A1278FC
S113323013441846FDF7F6FA012300E0002318466C
S11332400837BD4680BD00BF2802002007020020C9
S11332500802002061030020600300203A020020DD
S113326080B500AF1449154801F0A1F80346002BBE
S113327004D1134B01221A7001231AE011490F489B
S113328001F095F80346002B12D10D4B00221A7061
S11332900D4B1B78DBB2002B08D00C4B01221A70AB
S11332A0094B00221A700A4B01221A70012300E014
S11332B00023184680BD00BFB05000002802002043
S11332C03A020020B85000000C0200200C0000203C
S11332D00D02002080B400AF144B1B780A33DAB21D
S11332E0124B1A70114B1B783B2B12D90F4B1B78C6
S11332F03C3BDAB20D4B1A700D4B1B780133DAB23A
S11333000B4B1A700A4B1B78172B02D9084B00225F
S11333101A70084B00221A70074B00221A70074BD0
S113332001221A7000BFBD4680BC704760030020B4
S1133330610300200C0000200C0200200D0200207C
S113334080B58AB002AF00233B770023FB760023CD
S1133350FB770023BB770023BB76B64B1A78B64BBA
S11333601A70B64B1A78B64B1A70B24B1B781A46C1
S1133370642303FB02F3B14A127813441846FDF7A1
S113338051FAFEF78BFB7861AE4B1B78DBB21A4621
S1133390AD4B1B78DBB21946AC4B1B78DBB2381D46
S11333A000930B46AA4900F0D5FF7869FEF785FB28
S11333B03B1D1846FDF77EFB01210620FDF7EEFAC2
S11333C001210720FDF7EAFA01210820FDF7E6FABA
S11333D0A04B1B78DBB2002B76D0FEF75FFB386185
S11333E0984B1B78DBB21A46974B1B78DBB2194615
S11333F0964B1B78DBB2381D00930B46944900F0C2
S1133400A9FF954B1B78002B27D08E4B1B78DAB283
S1133410884B1B789A420BD18B4B1B78DAB2874BC3
S11334201B789A4204D1894B1B78DBB2002B12D053
S1133430844B1B78DAB2804B1B789A420DD1824BB5
S11334401B78DAB27E4B1B789A4206D17F4B1B78ED
S1133450DBB2002B01D1012300E00023BB76BB7E4D
S113346003F00103BB763869FEF727FB3B1D1846C2
S1133470FDF720FBBB7E002B18D0784B01221A707D
S11334800020FCF755FF0120FCF732FF4FF40070D9
S1133490FFF798FA4FF48060FFF794FA4FF4007046
S11334A0FFF7B4FA4FF48060FFF7B0FA6B4B1B7868
S11334B0DBB2002B05D00020FCF75AFF0120FCF7FB
S11334C057FF644B00221A70644B1B78DBB2002B4D
S11334D049D0FEF7E3FAF860614B1B783B77614B08
S11334E01B78FB76F868FEF7E8FA3A7FFB7E134315
S11334F0DBB2002B31D00123FB773B7F002B16D0AE
S1133500FB7E002B13D0BB7F83F00103DBB2002BC7
S11335100DD00123BB7701215348FFF70BFB00219A
S11335205148FFF7F8FA01214F48FFF721FBBB7F11
S1133530002B4CD03B7F83F00103DBB2002B05D181
S1133540FB7E83F00103DBB2002B40D0012146480F
S1133550FFF7FDFA0023BB7739E0FB7F002B36D061
S1133560FFF7B8FE33E0414B1B78DBB2002B2ED0C3
S11335704FF40070FFF736FA4FF48060FFF732FA29
S113358001213948FFF7E3FA354B00221A70354B15
S113359000221A7000233B770023FB760023FB777D
S11335A00023BB77324B1B78002B07D0214B1A78B2
S11335B0214B1A70214B1A78214B1A700020FCF70A
S11335C097FE0120FCF794FE284B00221A70294B29
S11335D01B78DBB2002B00F09A80264B00221A7075
S11335E0254B1B78DBB2002B5AD0234B00221A70D8
S11335F0FFF746FD0346522B42D0572B0DD0432BE9
S11336004AD1FFF78DFD034683F00103DBB2002BA3
S113361048D01A4B01221A7044E0FFF7CDFD03464F
S113362083F00103DBB2002B3ED0144B01221A704D
S11336303AE000BF070200206103002008020020D6
S1133640600300200402002005020020060200207E
S1133650C4500000090200203A0200200C0200209D
S11336600A0200200B020020000001400D0200208D
S11336700C0000200E0200200F0200201002002087
S1133680FFF7EEFD034683F00103DBB2002B0DD000
S1133690284B01221A7009E0264B01221A7006E019
S11336A000BF04E000BF02E000BF00E000BF214B08
S11336B01B78DBB2002B27D01E4B00221A7000238C
S11336C07B7709E07B7F5A1C7A771A461A4B9B5CFE
S11336D019461A48FFF712F97B7F174AD35C002B6F
S11336E0F0D101210020FDF759F9154B00221A7081
S11336F001211448FFF71EFA00211248FFF70BFAC4
S113370001211048FFF734FA0F4B00221A700C4BBA
S11337101B78DBB2002B3FF45BAE01210948FFF7B5
S113372016FA074B00221A7000210020FDF736F923
S11337304EE600BF100200203C50000000E00040B4
S113374039020020000401400E02002080B500AFC1
S1133750FCF752FE00BF80BD80B400AF034BDB6CAE
S11337601B0EDBB21846BD4680BC7047B081E00F2B
S113377080B582B000AF0E4B01221A64FFF7ECFF54
S11337800346FB713B1D1846FEF7BCFEFB790F2B6D
S11337900AD93B79022B07D9064B1B6823F0500347
S11337A0044A43F01003136000BF0837BD4680BDD0
S11337B000000C40C0800C4080B500AFFFF7D8FF7C
S11337C0FFF7C4FFFFF71CFAFFF750FAFFF77EFA82
S11337D0FFF7B2FAFFF7DCFAFFF706FBFCF75CFD34
S11337E00020FCF7C3FFFFF7ABFD0023184680BDA4
S11337F080B584B000AF786039607B68002B2DD031
S11338007B681B78022B0DD17B6808333968184616
S113381000F0EDFC0346002B01D0002320E04FF024
S1133820FF331DE04FF0FF33FB60FB680133FB60A7
S11338303968786800F0DBFC0346002B08D03B684D
S11338401B78002B02D14FF0FF3309E0FB6807E03F
S11338503B685A1C3A601B78002BE6D14FF0FF33CB
S113386018461037BD4680BD80B489B000AF78607B
S11338700123FB610023BB6100237B61CDE1BB69B4
S11338807A6813441B78FB74FB7C243B3A2B00F2CC
S1133890B28101A252F823F091390000F73B0000F5
S11338A0F73B0000F73B0000F73B0000F73B00004C
S11338B0A9390000B5390000F73B0000F73B0000D0
S11338C09D390000F73B0000F73B0000F73B000088
S11338D0F73B0000F73B0000F73B0000F73B00001C
S11338E0F73B0000F73B0000F73B0000F73B00000C
S11338F0F73B0000F73B0000F73B0000F73B0000FC
S1133900F73B0000C1390000F73B0000F73B000023
S1133910F73B0000F73B0000F73B0000F73B0000DB
S1133920F73B0000F73B0000F73B0000F73B0000CB
S1133930F73B0000F73B0000F73B0000F73B0000BB
S1133940F73B0000F73B0000F73B0000F73B0000AB
S1133950F73B0000F73B0000F73B0000F73B00009B
S1133960F73B0000F73B0000F73B0000F73B00008B
S1133970F73B0000353B0000CD390000F73B000069
S113398085390000B04A7B69022102F833103EE118
S1133990AD4A7B69032102F8331038E1AA4A7B69F6
S11339A0012102F8331032E1A74A7B69052102F8AC
S11339B033102CE1A44A7B69062102F8331026E176
S11339C0A14A7B69042102F8331020E1BB69013369
S11339D07A6813441B78002B00F0AA80BB6901337A
S11339E0BB61BB697A6813441B78443B332B00F2F8
S11339F08F8001A252F823F0D53A0000113B000059
S1133A00113B0000113B0000113B0000113B000082
S1133A10113B0000113B0000113B0000113B000072
S1133A20113B0000113B0000113B0000113B000062
S1133A30113B0000053B0000113B0000113B00005E
S1133A40113B0000ED3A0000113B0000113B000067
S1133A50113B0000113B0000113B0000113B000032
S1133A60113B0000113B0000113B0000113B000022
S1133A70113B0000113B0000C93A0000113B00005B
S1133A80113B0000113B0000113B0000113B000002
S1133A90113B0000113B0000113B0000113B0000F2
S1133AA0113B0000113B0000113B0000113B0000E2
S1133AB0113B0000F93A0000113B0000113B0000EB
S1133AC0113B0000E13A00005F4A7B690A2102F8D9
S1133AD033102EE05C4A7B690B2102F8331028E096
S1133AE0594A7B690C2102F8331022E0564A7B695B
S1133AF00D2102F833101CE0534A7B690E2102F8B1
S1133B00331016E0504A7B690F2102F8331010E09D
S1133B104D4A7B69072102F83310BB697A68134464
S1133B201978494A7B69DB0013440A461A7100E09C
S1133B3000BF6CE0FB69FB60BB6901337A68134426
S1133B401B785E2B08D1404A7B69092102F83310A7
S1133B50BB690133BB612BE03B4A7B69082102F856
S1133B60331025E0BB697A6813441B785C2B11D1B0
S1133B70FB69262B01DD002360E0BB695A1CBA6196
S1133B801A467B681A44FB69591CF96111782F4A5B
S1133B90D15404E0FB69272B01DD00234EE0BB690F
S1133BA07A681A44FB69591CF9611178274AD1547F
S1133BB0BB690133BB61BB697A6813441B785D2B15
S1133BC005D0BB697A6813441B78002BCAD1FB6902
S1133BD0272B01DD002331E0FB695A1CFA611B4AE3
S1133BE00021D154FB68194A1A4417497B69DB0048
S1133BF00B445A600BE0144A7B69072102F8331026
S1133C00114A7B69DB001344FA7C1A7100BFBB695B
S1133C100133BB617B6901337B61BB697A681344FF
S1133C201B78002B04D07B6901331D2B7FF727AE53
S1133C30054A7B69002102F83310034B18462437E8
S1133C40BD4680BC704700BF3C0200202C0300200E
S1133C5080B483B000AF0346FB71FB792F2B04D9EA
S1133C60FB79392B01D8012300E0002318460C37D7
S1133C70BD4680BC704780B483B000AF0346FB717F
S1133C80FB79602B02D9FB797A2B05D9FB79402B80
S1133C9004D9FB795A2B01D8012300E000231846EC
S1133CA00C37BD4680BC704780B483B000AF034678
S1133CB0FB71FB79202B0ED0FB79092B0BD0FB7900
S1133CC00A2B08D0FB790D2B05D0FB790C2B02D0E5
S1133CD0FB790B2B01D1012300E0002318460C379C
S1133CE0BD4680BC704780B582B000AF0346FB710F
S1133CF0FB795F2B0DD0FB791846FFF7BCFF034619
S1133D00002B06D1FB791846FFF7A2FF0346002BD0
S1133D1001D0012300E0002318460837BD4680BDCA
S1133D2080B483B000AF03463960FB71FB792D2B5F
S1133D3023D03B681B78002B1FD03B681B782D2BAE
S1133D401BD03B6801331B782D2B16D13B68013304
S1133D501B78002B11D03B6802331B78002B0CD04E
S1133D603B681B78FA799A4207D33B6802331B7885
S1133D70FA799A4201D8012300E0002318460C374F
S1133D80BD4680BC704780B483B000AF0346FB716E
S1133D90FB79732B0ED0FB79532B0BD0FB79772B4C
S1133DA008D0FB79572B05D0FB79642B02D0FB7923
S1133DB0442B01D1012300E0002318460C37BD46F3
S1133DC080BC704780B582B000AF03463960FB7198
S1133DD03B681B78443B332B00F29F8001A252F8CE
S1133DE023F000BFC13E00001B3F00001B3F00004A
S1133DF01B3F00001B3F00001B3F00001B3F000057
S1133E001B3F00001B3F00001B3F00001B3F000046
S1133E101B3F00001B3F00001B3F00001B3F000036
S1133E20053F00001B3F00001B3F00001B3F00003C
S1133E30E33E00001B3F00001B3F00001B3F00004F
S1133E401B3F00001B3F00001B3F00001B3F000006
S1133E501B3F00001B3F00001B3F00001B3F0000F6
S1133E601B3F0000B53E00001B3F00001B3F00004D
S1133E701B3F00001B3F00001B3F00001B3F0000D6
S1133E801B3F00001B3F00001B3F00001B3F0000C6
S1133E901B3F00001B3F00001B3F00001B3F0000B6
S1133EA0F93E00001B3F00001B3F00001B3F0000C9
S1133EB0D73E0000FB791846FFF7CAFE034634E0FC
S1133EC0FB791846FFF7C4FE0346002B0CBF012301
S1133ED00023DBB229E0FB791846FFF704FF034611
S1133EE023E0FB791846FFF7FEFE0346002B0CBFC8
S1133EF001230023DBB218E0FB791846FFF7D4FE58
S1133F00034612E0FB791846FFF7CEFE0346002B6A
S1133F100CBF01230023DBB207E03B681B78FA796E
S1133F209A420CBF01230023DBB218460837BD4672
S1133F3080BD00BF80B582B000AF03463960FB711D
S1133F40FB7939681846FFF7EBFE0346002B01D0D6
S1133F5001233DE03B681B785C2B1AD13B6801339D
S1133F603B60FB7939681846FFF72CFF0346002BAA
S1133F7001D001232CE03B681B78FA799A4220D1C6
S1133F80FB791846FFF7FFFE0346002B19D10123E6
S1133F901EE03B681B78FA799A4212D1FB792D2BEB
S1133FA00DD13B68013B1B78002B04D03B680133E7
S1133FB01B78002B01D101230AE0002308E0012330
S1133FC006E03B685A1C3A601B78002BB8D10023EA
S1133FD018460837BD4680BD80B584B000AF07F1F0
S1133FE0080383E803001346FB713B7A013B0E2B65
S1133FF06AD801A252F823F035400000C9400000FD
S1134000C9400000C9400000C9400000C940000088
S1134010C9400000394000004940000063400000EE
S11340206F4000008540000091400000A740000060
S1134030B340000001234EE0FA68FB7911461846AC
S1134040FFF778FF034646E0FA68FB791146184605
S1134050FFF770FF0346002B0CBF01230023DBB2E4
S113406039E0FB791846FFF7F3FD034633E0FB79AB
S11340701846FFF7EDFD0346002B0CBF0123002378
S1134080DBB228E0FB791846FFF72DFE034622E059
S1134090FB791846FFF727FE0346002B0CBF0123CC
S11340A00023DBB217E0FB791846FFF7FDFD03465A
S11340B011E0FB791846FFF7F7FD0346002B0CBF10
S11340C001230023DBB206E03B7BFA799A420CBF62
S11340D001230023DBB218461037BD4680BD00BF64
S11340E090B585B000AF07F1080484E803007A6056
S11340F03B603968786800F07AF80346002B01D0F9
S1134100012312E03B681B78002B0DD03B685A1C3E
S11341103A601B781A4607F1080393E80300FFF797
S11341205BFF0346002BE4D1002318461437BD4639
S113413090BD90B585B000AF07F1080484E8030092
S11341407A603B6008E03968786800F050F803460C
S1134150002B01D0012312E03B681B78002B0DD00B
S11341603B685A1C3A601B781A4607F1080393E827
S11341700300FFF731FF0346002BE4D10023184668
S11341801437BD4690BD90B585B000AF07F1080463
S113419084E803007A603B603B7A002B01D1012361
S11341A021E03968786800F022F80346002B01D03A
S11341B0012318E03B681B78002B13D03B685A1C82
S11341C03A601B781A4607F1080393E80300FFF7E7
S11341D003FF0346002B05D03968786800F007F820
S11341E0034600E0002318461437BD4690BD80B551
S11341F082B000AF786039607B681B78002B04D0F4
S11342007B6808331B78042B09D17B6803F1100207
S113421079683B6803C9FFF7B6FF034642E07B6851
S113422008331B78052B09D17B6803F110027968E8
S11342303B6803C9FFF754FF034633E07B68083348
S11342401B78062B09D17B6803F1100279683B685F
S113425003C9FFF76EFF034624E07B681B78032B3A
S11342600CD17B6808331B78002B07D13B681B7883
S1134270002B0CBF01230023DBB213E03B681B7847
S1134280002B0ED07B6803F108027A603A68511C57
S11342903960127893E80300FFF79EFE0346002B73
S11342A0AAD1002318460837BD4680BD0028B8BFF0
S11342B0404270470A22002100F006B908B5074BB6
S11342C0044613B10021AFF30080054B1868836ADC
S11342D003B19847204600F023FD00BF0000000012
S11342E0D450000070B500250C4E0D4CA41BA41036
S11342F0A54209D100F016FD00250A4E0A4CA41B64
S1134300A410A54205D170BD56F825309847013553
S1134310EEE756F8253098470135F2E7E001002032
S1134320E0010020E0010020E401002010B5431E5C
S11343300A44914200D110BD11F8014B03F8014F1A
S1134340F7E703460244934200D1704703F8011B88
S1134350F9E700000EB46FF0004100B59CB01DAB4E
S113436002900690079104910848094953F8042BD8
S11343700591006802A9019300F086F90022029BCE
S11343801A701CB05DF804EB03B0704710000020F5
S11343900802FFFFC9B2034610F8012B1AB18A4282
S11343A0F9D118467047002918BF0023F9E710F81F
S11343B0012B11F8013B012A28BF9A42F7D0D01AE9
S11343C07047034613F8012B002AFBD1181A013851
S11343D070472DE9F0478046894692461E460F46AF
S11343E03D46089815F8014B00F084F820444378C2
S11343F013F0080332D12D2C32D101227C78BD1C5C
S1134400002E5DD0102E09D1302C07D12B7803F06B
S1134410DF03582B4FD110266C780235002A14BFC5
S11344204FF000416FF000410027B1FBF6FC384625
S113443006FB1C1EA4F13003092B17D81C46A64208
S113444023DD7B1C07D084451CD301D1A64519DB91
S1134450012700FB064015F8014BEBE72F46BFE7A9
S11344602B2C04BFBD1C7C781A46C9E7A4F1410378
S1134470192B01D8373CE2E7A4F16103192B04D8C6
S1134480573CDCE74FF0FF37E5E77B1C08D12223DC
S11344900846C8F80030BAF1000F07D1BDE8F0872C
S11344A002B14042BAF1000FF8D00FB105F1FF3963
S11344B0CAF80090F2E73024002EAFD10826ADE709
S11344C0302CA3D00A26A9E7084B37B51C68084D41
S11344D0236A002B08BF2B46009313460A46014665
S11344E02046FFF776FF03B030BD00BF1000002068
S11344F074000020D0F8EC00704782B001B901A923
S113450042B14BB113780B601278101C18BF012014
S113451002B070471046FBE76FF00100F8E70000B7
S113452070B5CD1C25F0030508350C2D38BF0C25BE
S1134530002D064601DBA94203D90C233360002079
S113454070BD00F063FB214A1468214691B9204CE8
S113455023681BB9304600F015FB2060294630461D
S113456000F010FB431C24D10C233046336000F0D0
S11345704EFBE4E70B685B1B18D40B2B0FD90B60C5
S1134580CC18CD50304600F042FB04F10B00231D43
S113459020F00700C31AD3D05A42E250D0E74B6848
S11345A08C4216BF636013600C46EBE70C46496807
S11345B0CCE7C41C24F00304A04205D0211A3046E1
S11345C000F0E0FA0130CFD02560DBE7540300208F
S11345D0580300202DE9F0478E6882469E420C461F
S11345E09046994637D88A8912F4906F31D00223C5
S11345F0256809696F1A656905EB450595FBF3F5AF
S113460009F101033B449D4238BF1D46530530D593
S11346102946FFF785FF064650B90C234FF0FF30BB
S1134620CAF80030A38943F04003A381BDE8F087B2
S11346303A462169FFF77AFEA38923F4906343F095
S11346408003A38126613E4426604E466561ED1BCE
S1134650A5604E4500D94E4632464146206800F0DA
S1134660BCFAA36800209B1BA36023681E44266039
S1134670DCE72A4600F018FB06460028E2D121694F
S1134680504600F0C5FAC8E72DE9F04F9DB00393FA
S11346908B8980461D060C4616460FD50B696BB9EF
S11346A04021FFF73DFF2060206128B90C23C8F8A2
S11346B000304FF0FF30C7E04023636100230993CB
S11346C020238DF8293030234FF0010B8DF82A3048
S11346D037463D4615F8013B0BB1252B3ED1B7EBD0
S11346E0060A0BD05346324621464046FFF772FF76
S11346F0013000F0A480099B534409933B78002BBC
S113470000F09D8000234FF0FF32CDE90523049390
S113471007938DF853301A932F46052217F8011B7F
S11347204F4800F04CFA049BD0B9D90644BF20226C
S11347308DF853201A0744BF2B228DF853202A7872
S11347402A2A15D02F4600200A25079A394611F83F
S1134750013B303B092B4DD9B8B10FE02F46B8E7E8
S11347603F4A3D46801A0BFA00F018430490D3E701
S1134770039A111D12680391002A01DB079204E0D9
S1134780524243F00203079204933B782E2B0CD140
S11347907B782A2B33D1039B02371A1D1B680392A3
S11347A0002BB8BF4FF0FF3305932E4D0322397809
S11347B0284600F004FA38B14023401B03FA00F005
S11347C0049B0137034304933978062226487E1C50
S11347D08DF8281000F0F3F9002838D0234B13BBD0
S11347E0039B073323F0070308330393099B4B44CC
S11347F009936DE705FB023201200F46A6E700236B
S11348000A25194601370593384610F8012B303A2A
S1134810092A03D9002BC8D00591C6E705FB01215D
S113482001230746F0E703AB00932246104B04A98B
S11348304046AFF30080B0F1FF3F8146D6D1A38953
S11348405B063FF536AF09981DB0BDE8F08F03ABAA
S113485000932246064B04A9404600F081F8EAE79B
S113486042510000485100004C510000000000007B
S1134870D54500002DE9F04791461F468A680B692B
S113488006469342B8BF1346C9F8003091F8432056
S11348900C46DDF8208012B10133C9F800302368DA
S11348A0990642BFD9F800300233C9F800302568B0
S11348B015F0060507D104F1190AE368D9F80020B8
S11348C09B1AAB4229DC94F843302268003318BFAA
S11348D0012392062ED404F1430239463046C047E0
S11348E0013021D02368E56803F00603042B18BFC8
S11348F00025D9F800204FF0000908BFAD1AA368BD
S1134900226908BF25EAE5759342C4BF9B1AED18D6
S11349101A344D451AD1002008E001235246394685
S11349203046C047013003D14FF0FF30BDE8F08777
S11349300135C2E73020E11881F843005A1C94F88D
S113494045102244023382F84310C4E7012322466F
S113495039463046C0470130E6D009F10109D8E7AD
S11349602DE9F04301F1430C0C46097E85B06E2914
S11349701746064698460C9A00F0B38022D863295D
S113498036D00AD8002900F0B980582900F0838075
S113499004F1420584F8421032E0642901D0692907
S11349A0F6D120681368050603F104012AD51B68B3
S11349B01160002B03DA2D225B4284F843206F48F8
S11349C00A2239E0732900F09D8008D86F2920D08D
S11349D07029DDD1236843F02003236003E07529A7
S11349E017D07829D4D17823654884F8453055E028
S11349F0136804F14205191D1B68116084F84230E4
S1134A0001238CE01B6810F0400F116018BF1BB22B
S1134A10CFE713682568181D1060280601D51B68A8
S1134A2002E06806FBD51B886F2914BF0A220822FE
S1134A305248002184F843106568002DA560C0F237
S1134A409580216821F004012160002B3DD1002DC7
S1134A5040F08E806546082A0BD12368DB0708D511
S1134A60236962689A42DEBF302305F8013C05F1F0
S1134A70FF35ACEB05032361CDF800803B4603AA68
S1134A8021463046FFF7F6FE01304DD14FF0FF309E
S1134A9005B0BDE8F083394884F8451013682168EF
S1134AA01D1D1B6815600A060BD5CA0744BF41F0DB
S1134AB0200121601BB9226822F02002226010220A
S1134AC0B7E74D0648BF9BB2EFE76546B3FBF2F18B
S1134AD002FB1133C35C05F8013D0B460029F5D1F7
S1134AE0B9E713682568181D6169106028061B68FA
S1134AF001D5196002E06A06FBD5198000236546DA
S1134B002361B9E71368191D11601D6862680021EB
S1134B10284600F054F808B1401B606063682361C4
S1134B20002384F84330A7E723692A4639463046F0
S1134B30C0470130AAD023689B0713D4E068039BC5
S1134B409842B8BF1846A3E701234A46394630467F
S1134B50C04701309AD00135E368039A9B1AAB42EF
S1134B60F2DCEBE7002504F11909F5E7002BACD1E1
S1134B70037804F1420584F842306CE75351000095
S1134B806451000038B50023054C054608462360EF
S1134B9000F0B8F8431C02D1236803B12B6038BD80
S1134BA06403002049B1FF2A8BBF8A230A70036083
S1134BB0012088BF4FF0FF3070470846704710B59A
S1134BC0C9B202449042034601D1002303E01C7899
S1134BD001308C42F6D1184610BD884210B501EB65
S1134BE0020307D8421E99420AD011F8014B02F879
S1134BF0014FF8E78342F5D98118D21AD34200D184
S1134C0010BD13F8014D01F8014DF7E770477047E7
S1134C1038B50546002943D051F8043C0C1F002B3D
S1134C20B8BFE418FFF7F2FF1E4A1368104633B901
S1134C30636014602846BDE83840FFF7E8BFA3422C
S1134C400BD921686218934201BF1A685B68521835
S1134C50226063600460EDE713465A680AB1A24219
S1134C60FAD919685818A0420BD120680144581881
S1134C7082421960DED110685268014419605A609A
S1134C80D8E702D90C232B60D4E7206821188A4284
S1134C9001BF116852680918216062605C60C9E74D
S1134CA038BD00BF54030020F8B5074614460E462D
S1134CB021B9BDE8F8401146FFF732BC22B9FFF72D
S1134CC0A7FF25462846F8BD00F014F8A0420FD2ED
S1134CD021463846FFF724FC05460028F2D0314629
S1134CE02246FFF723FB31463846FFF791FFE9E7F9
S1134CF03546E7E751F8043C181F002BBCBF0B589E
S1134D00C0187047044A05491368002B08BF0B46B6
S1134D1018441060184670475C03002068030020A4
S1134D20FEE700BFF8B500BFF8BC08BC9E4670475C
S1134D30F8B500BFF8BC08BC9E46704704000000EC
S1134D400200000004000000030000000101050748
S1134D50070304020302040605060D0E0E0E0D0DD4
S1134D600D0D0E0E0E0E0D0D0101050707030402B5
S1134D700302040605060F1010100F0F0F0F10107A
S1134D8010100F0F010105070703040203020406B4
S1134D90050611121212111111111212121211110F
S1134DA00101050707030402030204060506131C98
S1134DB01C1C131313131C1C1C1C131300010507C8
S1134DC0060203010302040604051D1E1E1E1D1D0A
S1134DD01D1D1E1E1E1E1D1D0001050706020301CA
S1134DE00302040604051F2020201F1F1F1F20206C
S1134DF020201F1F01010507070304020302040604
S1134E0005062122222221212121222222222121BE
S1134E100705020103060423232323232323070571
S1134E200201030604242424242424240705020163
S1134E300306042525252525252507050201030646
S1134E4004262626262626260001070206272727CB
S1134E5027270000000000000000131211100F0E9D
S1134E600D0C000000002125242601010304040286
S1134E7003020D0E0D0D0E0D0E0E010103040402AE
S1134E8003020F100F0F100F10100101030404028E
S1134E90030211121111121112120101030404026E
S1134EA00302131C13131C131C1C00010203040132
S1134EB003021D1E1D1D1E1D1E1E000102030401F2
S1134EC003021F201F1F201F2020010103040402CE
S1134ED0030221222121222122220507070404069C
S1134EE005060E0E0D0D0E0E0D0D05070704040626
S1134EF0050610100F0F10100F0F05070704040606
S1134F0005061212111112121111050707040406E5
S1134F1005061C1C13131C1C1313050706030406A7
S1134F2004051E1E1D1D1E1E1D1D05070603040669
S1134F30040520201F1F20201F1F05070704040647
S1134F400506222221212222212100000000001135
S1134F5080020000000002060000200039000F005B
S1134F600000401500204004001000223F0006000D
S1134F705B044F0466046D047D0407007F046F0422
S1134F8000000000000A000080200000FFFF7704FA
S1134F90790A3900B020790071007D047604060096
S1134FA00E00700A3800B602B6083F0073043F08CA
S1134FB0730C6D0401113E0030223628802A6E04E1
S1134FC00922390080080F00010008000001581070
S1134FD07C0458005E04582071040C0C7404040012
S1134FE00E00700C3800541454045C0473046704F9
S1134FF05004080C78001C0010201428802A0C0887
S1135000482000003F0006005B004F0066006D0072
S11350107D0007007F006F0077007C0039005E0090
S1135020790071004000000001000000030040000E
S11350300C00000000000000000000004572726FC8
S113504072200D0A000000000100010005000000AC
S11350500000000000C20100000500000010000074
S1135060000000005E43205B302D325D3F5B302D3D
S1135070395D3A5B302D355D3F5B302D395D3A5BF0
S1135080302D355D3F5B302D395D200D0A24000045
S11350905E57205B302D325D3F5B302D395D3A5BCE
S11350A0302D355D3F5B302D395D200D0A24000025
S11350B052204F4E200D0A0052204F4646200D0A22
S11350C0000000002530326425303264253032641B
S11350D00000000014000020000000000000000098
S11350E000000000000000000000000000000000BC
S11350F000000000000000000000000000000000AC
S1135100000000000000000000000000000000009B
S1135110000000000000000000000000000000008B
S1135120000000000000000000000000000000007B
S113513000000000000000004300504F5349580095
S11351402E00232D302B2000686C4C0065666745CB
S113515046470030313233343536373839414243EB
S1135160444546003031323334353637383961629C
S11351706364656600002020202020202020202851
S113518028282828202020202020202020202020FB
S11351902020202020208810101010101010101033
S11351A01010101010100404040404040404040473
S11351B010101010101010414141414141010101F2
S11351C001010101010101010101010101010101CB
S11351D001101010101010424242424242020202D8
S11351E0020202020202020202020202020202029B
S11351F00210101010200000000000000000000049
S1135200000000000000000000000000000000009A
S1135210000000000000000000000000000000008A
S1135220000000000000000000000000000000007A
S1135230000000000000000000000000000000006A
S1135240000000000000000000000000000000005A
S1135250000000000000000000000000000000004A
S1135260000000000000000000000000000000003A
S10F52700000000000000000000000002E
S10B527CA0AEFF7F0100000059
S1135284006CDC0200800000809FD5000100000057
S11352941400002000000000F85000001851000021
S11352A4D8500000000000000000000000000000CE
S11352B400000000000000000000000000000000E6
S11352C400000000000000000000000000000000D6
S11352D400000000000000000000000000000000C6
S11352E400000000000000000000000000000000B6
S11352F40000000043000000000000000000000063
S11353040000000000000000000000000000000095
S11353140000000043000000000000000000000042
S11353240000000000000000000000000000000075
S11353340000000043000000000000000000000022
S11353440000000000000000000000000000000055
S11353540000000043000000000000000000000002
S11353640000000000000000000000000000000035
S113537400000000430000000000000000000000E2
S11353840000000000000000000000000000000015
S113539400000000430000000000000000000000C2
S11353A400000000000000000000000000000000F5
S11353B400000000430000000000000000000000A2
S11353C400000000000000000000000000000000D5
S11353D400000000A54B0000FB4400000000000096
S11353E4755100004051000047510000475100002E
S11353F44751000047510000475100004751000045
S1135404475100004751000047510000FFFFFFFFD0
S1135414FFFFFFFFFFFFFFFFFFFF000001004153F9
S1135424434949000000000000000000000000009F
S113543400000000000000000000000000004153D0
S1135444434949000000000000000000000000007F
S11354540000000000000000000000000000000044
S10B546401010000DD0000005D
S90303B148
